:100000000C9436020C9499020C9448020C94480209
:100010000C9448020C9448020C9448020C944A0236
:100020000C9448020C9448020C9448020C94480228
:100030000C9448020C9448020C9448020C94480218
:100040000C9448020C9448020C9448020C94480208
:100050000C9448020C9448020C9448020C944802F8
:100060000C9448020C9448024E4F20524553504F76
:100070004E53452046524F4D2053454E534F52004C
:10008000434845434B53554D204552524F5200254E
:100090000048756D69646974793A004600430054FC
:1000A000656D70657261747572653A0000000000DC
:1000B0000000000000000000000000000000000040
:1000C0000000000000000000000000000000000030
:1000D0000000000000000000000000000000000020
:1000E0000000000000000000000000000000000010
:1000F0000000000000000000000000000000000000
:10010000000000000000000000C02020202020206F
:1001100020202020C0000000000000000000F0109F
:10012000101010E00000F00000804040408000000F
:10013000804040408000008040404080000080407F
:1001400040408000000000000000000000000000AF
:10015000000000000000000000000000000F11314E
:1001600031D1F1D1D13111110F0000000000000098
:1001700000001F010101010000001F00000F12120A
:10018000120B00000C12120A1F0000091212120CAE
:1001900000000F1212120B0000000000000000000F
:1001A000000000000000000000000000000000004F
:1001B00000F0188686E1F1E1E1861818F0000000F1
:1001C000000000000000000060800080608000806F
:1001D000600040202020C00000E80020F82000003F
:1001E000000000000000000000000000000000000F
:1001F00000000000000000000000000000000000FF
:1002000000000000000307070707070707070707A5
:1002100003000000000000000000000000030C03C9
:1002200000030C030000060909050F00000F000081
:100230000F0800000000080000080000080000008F
:1002400000000000000000000000000000000000AE
:10025000000000000000000000000000000000009E
:10026000000000000000000000000000000000008E
:10027000000000000000000000000000000000007E
:10028000000000000000000000000000000000006E
:10029000000000000000000000000000000000005E
:1002A00000000000000000000000002F0000000718
:1002B000000700147F147F14242A7F2A12C4C81058
:1002C000264636495522500005030000001C2241F5
:1002D000000041221C0014083E081408083E0808CB
:1002E000000050300010101010100060600000205E
:1002F000100804023E5149453E00427F40004261E1
:100300005149462141454B311814127F102745456C
:1003100045393C4A49493001710905033649494983
:1003200036064949291E00363600000056360000C0
:100330000814224100141414141400412214080259
:1003400001510906324959513E7E1111117E7F49F2
:100350004949363E414141227F4141221C7F494962
:1003600049417F090909013E4149497A7F08080846
:100370007F00417F41002040413F017F081422411E
:100380007F404040407F020C027F7F0408107F3E88
:100390004141413E7F090909063E4151215E7F09E5
:1003A000192946464949493101017F01013F404031
:1003B000403F1F2040201F3F4038403F6314081437
:1003C0006307087008076151494543007F414100B8
:1003D000552A552A550041417F000402010204407C
:1003E00040404040000102040020545454787F48AB
:1003F0004444383844444420384444487F385454B2
:100400005418087E0901020C5252523E7F0804041F
:100410007800447D40002040443D007F1028440087
:1004200000417F40007C041804787C08040478387C
:10043000444444387C14141408081414187C7C08B0
:100440000404084854545420043F4440203C404095
:10045000207C1C2040201C3C4030403C442810287C
:10046000440C5050503C4464544C440011241FBE72
:10047000CFEFD8E0DEBFCDBF23E0A0E0B1E001C008
:100480001D92AC30B207E1F70E9462070C946E0A2D
:100490000C9400001F920F920FB60F9211248F93AD
:1004A0009F93809106039091070381309105A9F4F1
:1004B00080910601811104C081E08093060132C061
:1004C0005A9A1092060182E090E09093070380937D
:1004D000060388E28093B30025C00297B1F48FEF42
:1004E0008093B30052985A9AE8988091690083608B
:1004F00080936900E09AE89A1092B20083E090E05D
:1005000090930703809306030DC088E090E09093DA
:100510000703809306031092B100E898529A5A9A02
:10052000109205019F918F910F900FBE0F901F9019
:1005300018951F920F920FB60F9211242F933F938D
:100540004F938F939F932091B2001092B2008091AD
:1005500006039091070383309105A1F429522B33B0
:1005600008F06FC0E898809169008260809369000C
:10057000809169008E7F80936900E09AE89A84E018
:1005800090E06EC08430910539F42D53273208F085
:1005900058C085E090E064C0059709F052C023334D
:1005A00008F44FC0409105012F3608F447C0213AA6
:1005B00008F047C04031A8F48FE090E0841B910917
:1005C00021E030E002C0220F331F8A95E2F78091CC
:1005D000030190910401822B932B9093040180934B
:1005E000030180EF840F8031A8F48FE190E0841B39
:1005F000910921E030E002C0220F331F8A95E2F713
:100600008091010190910201822B932B9093020122
:100610008093010180EE840F883080F427E230E07F
:10062000241B310981E090E0022E01C0880F0A945A
:10063000EAF790910001982B909300014F5F40934F
:10064000050180910501883278F01092B100109276
:10065000B200E898529A5A9A1092050186E090E00A
:1006600090930703809306039F918F914F913F9141
:100670002F910F900FBE0F901F901895CF93DF937F
:10068000FC018091060390910703069709F043C08F
:100690008091030190910401292F30E09093080389
:1006A00080930A03C0910101D09102014D2F55277B
:1006B00040930903C0930B036091000170E0280F81
:1006C000311D240F351F2C0F311D3327621773077F
:1006D000E1F42AE030E0B9010E947B086283838361
:1006E000CE01D7FF0AC09F7790930201809301014A
:1006F000B9010E947B08619503C0B9010E947B0883
:100700006083818387E090E002C089E090E090936D
:100710000703809306038091060390910703DF91FE
:10072000CF910895529A5A9A82E08093B0008093B4
:1007300070001092B1001092070310920603089502
:10074000529808958091060390910703009719F03D
:100750000797039710F51092020110920101109271
:1007600004011092030110920001109206011092F0
:100770000501E898529A5A988FEF8093B30010922F
:10078000B20081E090E0909307038093060382E03B
:100790008093B1008BE090E008958AE090E00895A6
:1007A0002A986130710511F4289A01C028988EBDED
:1007B0000DB407FEFDCF2A9A089580E18CBD85B166
:1007C000827C85B90895CF93C82F60E070E081E204
:1007D0000E94D00360E070E08C2F80680E94D003FC
:1007E00060E070E080E2CF910C94D00388EF91E05C
:1007F000EEE0F1E0DF019C011D9221503040E1F775
:1008000010920B0110920A0187EF91E09093090179
:100810008093080181E08093070108958F30D8F418
:100820006730C8F490E0019746E0489F9001499FE7
:10083000300D112470E06150710944E5469FC001FC
:10084000479F900D1124280F391F30930D012093DD
:100850000C0180E0089581E008951F93CF93DF930A
:1008600020910C0130910D0140910A0150910B0132
:100870002417350724F430930B0120930A0140EE2E
:10088000460F4C3508F06CE581309105C9F4C9017B
:100890002B5F3F4F45E0649FB0011124681B790B2B
:1008A0006C5F7D4FFB01E80FF91FE491DC01A25F53
:1008B000BE4FEE0FEC9301968217930799F767C02E
:1008C000029709F068C0C9018455910940910A0155
:1008D00050910B018417950724F490930B0180939A
:1008E0000A0197FD7CC0AC0185E0689FB00111242E
:1008F00080E090E06C5F7D4F1CE0D8E1FB01E80FE9
:10090000F91FE491EE0FAE2FA470A19FA02D11242A
:10091000BE2FB270FB2FFF0FFB0FFF0FAF2BFE2F71
:10092000F870FD9FF02D1124AF2BE295EF70FE2F94
:10093000F270CF2FCC0FCF0FCC0FBE2FB170FB2F8B
:10094000FF0FFB0FCF2BFE2FF470F19FF02D112422
:10095000CF2BE870ED9FE02D1124CE2BFA01E25F42
:10096000FE4FA083A183DF01AC5ABF4FCC93EB5A5B
:10097000FF4FC08301964E5F5F4F8530910509F0B0
:10098000BDCFC9010B9668EF71E00E948F0890936C
:100990000D0180930C0180910C0190910D0120912B
:1009A0000801309109012817390724F490930901AF
:1009B00080930801FC01E25FFE4F1082873F21E037
:1009C000920731F410920D0110920C0182E008C0E0
:1009D000019690930D0180930C0180E001C081E0AD
:1009E000DF91CF911F910895FF920F931F93CF93A3
:1009F000DF93EC018B01F12CF801EF0DF11D60810B
:100A0000662339F0CE010E942D04813021F0F39449
:100A1000F3CF80E001C081E0DF91CF911F910F9172
:100A2000FF9008950F931F93CF93DF938C01EB01F9
:100A3000FE016491662339F0C8010E942D048130C3
:100A400021F02196F5CF80E001C081E0DF91CF91C8
:100A50001F910F910895853508F04FC0613308F05C
:100A60004CC0262F26952695269590E034E5239FA9
:100A7000800D911D112438EF239F600D1124FC017E
:100A8000E25FFE4F70814115510551F421E030E0E5
:100A9000062E01C0220F0A94EAF72095722315C092
:100AA0004130510539F4062E01C0440F0A94EAF78B
:100AB000742B0BC04230510541F421E030E0062E8A
:100AC00001C0220F0A94EAF77227708320910A016D
:100AD00030910B018217930720F490930B018093C0
:100AE0000A0120910801309109012817390738F4CB
:100AF000909309018093080102C081E0089580E08D
:100B000008956F927F928F929F92AF92BF92CF92F1
:100B1000DF92EF92FF920F931F93CF93DF93A82E54
:100B2000D62EB42E722EC22FD0E0C41BD109E62ED1
:100B3000F12CE81AF108D7FF06C0D195C195D1096B
:100B400088248A9402C088248394F7FE06C0F19416
:100B5000E194F10899249A9402C099249394A801ED
:100B60006B2D8A2D0E942B0581113BC0EE0CFF1CC2
:100B7000CC0FDD1FCE15DF05C4F4C7019595879511
:100B80003E01681A790AAD14C1F077FC03C0B80CB5
:100B90006E187F08A90C6C0E7D1EA8016B2D8A2D86
:100BA0000E942B05882379F31CC0CE01959587956B
:100BB0006701C81AD90AB71005C081E08093070100
:100BC00080E00FC0D7FC03C0A90CCC1ADD0AB80C1A
:100BD000CE0CDF1CA8016B2D8A2D0E942B058823CB
:100BE00051F3DF91CF911F910F91FF90EF90DF9024
:100BF000CF90BF90AF909F908F907F906F9008950F
:100C0000CF92DF92EF92FF920F931F93CF93DF93D8
:100C1000C82EE62E84E58C1528F180E3861710F1A6
:100C2000641718F0F62EF41A01C0F12CC22FD0E090
:100C3000CC0DD11DFE1488F4DC2C2D2D30E02C17AA
:100C40003D074CF4A8016F2D8D2D0E942B058111BD
:100C50000AC0D394F2CFF394EDCF81E080930701E3
:100C600080E001C081E0DF91CF911F910F91FF9053
:100C7000EF90DF90CF900895AF92BF92CF92DF9226
:100C8000EF92FF920F931F93CF93DF93D62EE42E14
:100C9000A22E62E0B62EB40EC82EEC0175E0F72E3F
:100CA00080E09C2F9C199D15B0F4853510F081E0F3
:100CB00016C049914A9D402D112401E010E02E2DCF
:100CC00066E28F2D0E9400069F2D9B0D813079F3E7
:100CD0008F2DF92EE6CF81E08093070180E0DF9130
:100CE000CF911F910F91FF90EF90DF90CF90BF9029
:100CF000AF900895CF92DF92EF92FF920F931F93E0
:100D0000CF93DF931F92CDB7DEB7F82EE62ED42E09
:100D100084E58F15F8F08617E8F0E0E3E417D0F0EB
:100D20002133C0F4F616C0F44217B0F4CF2CA8015A
:100D30006D2D8C2D29830E942B05298181110DC0D9
:100D4000C394CE10F4CFD394D212F0CF81E080932D
:100D5000070102C081E001C080E00F90DF91CF91D8
:100D60001F910F91FF90EF90DF90CF90089548EF83
:100D700051E0BC018EE091E00E94250A10920B0127
:100D800010920A0187EF91E0909309018093080186
:100D900081E08093070108951F93CF93DF938091A3
:100DA0000A0190910B0197FF05C010920B01109260
:100DB0000A0109C0883F914034F087EF91E0909399
:100DC0000B0180930A01809108019091090197FF1E
:100DD00005C0109209011092080109C0883F914096
:100DE00034F087EF91E09093090180930801C0915E
:100DF0000A01D0910B01CE0164E570E00E948F08DA
:100E0000162F60E070E080680E94D00360E070E020
:100E1000812F80640E94D003809108019091090184
:100E20008C179D0754F0FE01E25FFE4F61E070E019
:100E300080810E94D0032196EFCF87EF91E09093BD
:100E40000B0180930A01109209011092080110927F
:100E50000701DF91CF911F9108952C9A84B18D6382
:100E600084B92C982C9A80E58CBD2A9A60E070E0B9
:100E700081E20E94D00360E070E088EC0E94D00321
:100E800060E070E086E00E94D00360E070E083E103
:100E90000E94D00360E070E080E20E94D00360E036
:100EA00070E08CE00E94D00388EF91E090930B01FA
:100EB00080930A0110920901109208010E94F60322
:100EC0000C94CC06CF93DF93CDB7DEB7C054D109D5
:100ED0000FB6F894DEBF0FBECDBF0E942D070E9453
:100EE0009203789480EC8AB98DE384B98091810073
:100EF000846080938100E12CF12C90E0499B06C036
:100F0000F11006C08BB180588BB902C0F12C02C021
:100F1000FF24F3945E9A91111EC00E94F6038CEA9E
:100F200090E00E94B7060E94CC062FEF88E09DE378
:100F3000215080409040E1F700C000000E94CC06A4
:100F40002FEF84E39CE0215080409040E1F700C007
:100F5000000091E0D3CF8091840090918500813191
:100F60009A47E8F01092850010928400E39484E19F
:100F7000E81215C05F985E980E94A0030E94DD03EE
:100F800083B7817F846083BF83B7816083BF83B76A
:100F9000816083BF889583B78E7F83BFE12C0E94D9
:100FA000A203CE01CD960E943E038730910509F041
:100FB0008AC0CDACDD24C7FCD0940FAD10E04AE070
:100FC00050E0BE01675D7F4FC6010E942E0AB60148
:100FD00080E090E00E94340926E636E646EE5FE3C4
:100FE0000E94C20920E030E040E052E40E94A408E0
:100FF0000E940809DC01CB014AE050E0BE016B5EB3
:101000007F4F0E942E0A4AE050E0BE016F5F7F4F83
:10101000C8010E942E0A0E94F60361E082E00E944D
:101020000E046FE970E081E090E00E94120562E03A
:1010300083E00E940E04BE01675D7F4F81E090E077
:101040000E94F40462E086E00E940E046DE970E004
:1010500081E090E00E94120562E089E00E940E04A7
:10106000BE016B5E7F4F81E090E00E94F40462E07D
:101070008CE00E940E046BE970E081E090E00E9439
:10108000120564E083E00E940E0461E970E081E0F3
:1010900090E00E94120565E086E00E940E04BE0109
:1010A0006F5F7F4F81E090E00E94F40465E089E08B
:1010B0000E940E046FE870E081E090E00E9412054B
:1010C0000E94CC0646CF8930910539F461E082E078
:1010D0000E940E0460E870E009C0089709F039CF5B
:1010E00061E082E00E940E0468E670E081E090E03A
:1010F0000E9412052ECFAA1BBB1B51E107C0AA1FDD
:10110000BB1FA617B70710F0A61BB70B881F991FA8
:101110005A95A9F780959095BC01CD01089597FB4C
:10112000072E16F4009407D077FD09D00E947B08A3
:1011300007FC05D03EF4909581959F4F08957095DA
:1011400061957F4F08955058BB27AA270ED0E0C065
:10115000D1D030F0D6D020F031F49F3F11F41EF4FE
:10116000C6C00EF4E095E7FBBCC0E92FE2D080F3E7
:10117000BA17620773078407950718F071F49EF594
:10118000FAC00EF4E0950B2EBA2FA02D0B01B90179
:1011900090010C01CA01A0011124FF27591B99F0ED
:1011A000593F50F4503E68F11A16F040A22F232FF9
:1011B000342F4427585FF3CF469537952795A79549
:1011C000F0405395C9F77EF41F16BA0B620B730BF0
:1011D000840BBAF09150A1F0FF0FBB1F661F771F61
:1011E000881FC2F70EC0BA0F621F731F841F48F416
:1011F000879577956795B795F7959E3F08F0B3CF9C
:101200009395880F08F09927EE0F97958795089585
:1012100098D088F09F5790F0B92F9927B751A0F038
:10122000D1F0660F771F881F991F1AF0BA95C9F77A
:1012300012C0B13081F09FD0B1E008959CC0672FFB
:10124000782F8827B85F39F0B93FCCF3869577952A
:101250006795B395D9F73EF4909580957095619513
:101260007F4F8F4F9F4F0895E89409C097FB3EF43E
:1012700090958095709561957F4F8F4F9F4F9923E3
:10128000A9F0F92F96E9BB279395F6958795779561
:101290006795B795F111F8CFFAF4BB0F11F460FF21
:1012A0001BC06F5F7F4F8F4F9F4F16C0882311F079
:1012B00096E911C0772321F09EE8872F762F05C08D
:1012C000662371F096E8862F70E060E02AF09A9528
:1012D000660F771F881FDAF7880F9695879597F91D
:1012E000089597F99F6780E870E060E008959FEFA8
:1012F00080EC089500240A941616170618060906AD
:10130000089500240A94121613061406050608957B
:10131000092E0394000C11F4882352F0BB0F40F403
:10132000BF2B11F460FF04C06F5F7F4F8F4F9F4F43
:10133000089557FD9058440F551F59F05F3F71F0C5
:101340004795880F97FB991F61F09F3F79F087952C
:101350000895121613061406551FF2CF4695F1DFB5
:1013600008C0161617061806991FF1CF8695710545
:10137000610508940895E894BB2766277727CB0179
:1013800097F908950BD0C4CFB5DF28F0BADF18F075
:10139000952309F0A6CFABCF1124EECFCADFA0F37F
:1013A000959FD1F3950F50E0551F629FF001729FFA
:1013B000BB27F00DB11D639FAA27F00DB11DAA1F19
:1013C000649F6627B00DA11D661F829F2227B00D66
:1013D000A11D621F739FB00DA11D621F839FA00DF1
:1013E000611D221F749F3327A00D611D231F849F41
:1013F000600D211D822F762F6A2F11249F57504098
:101400008AF0E1F088234AF0EE0FFF1FBB1F661F32
:10141000771F881F91505040A9F79E3F510570F0EB
:1014200060CFAACF5F3FECF3983EDCF386957795CB
:101430006795B795F795E7959F5FC1F7FE2B880FE6
:10144000911D9695879597F90895FB01DC0102C0DF
:1014500005900D9241505040D8F7089545325105FE
:1014600020F4423010F00C94390AFB011082CB01B9
:101470000895BB274A3031F4992322F4BDE29095B8
:1014800081959F4F0C94450ABB27FB015527AA273E
:10149000880F991FAA1FA41710F0A41B8395505101
:1014A000B9F7A05DAA3308F0A95DA193009779F779
:1014B000B111B1931192CB010C945E0ADC01FC01D5
:1014C000672F71917723E1F7329704C07C916D9378
:1014D00070836291AE17BF07C8F30895F894FFCFE9
:00000001FF
